{
  "_format": "hh-sol-artifact-1",
  "contractName": "eStore",
  "sourceName": "contracts/eStore.sol",
  "abi": [
    {
      "inputs": [
        {
          "internalType": "address",
          "name": "_paymentToken",
          "type": "address"
        }
      ],
      "stateMutability": "nonpayable",
      "type": "constructor"
    },
    {
      "anonymous": false,
      "inputs": [
        {
          "indexed": true,
          "internalType": "uint256",
          "name": "id",
          "type": "uint256"
        },
        {
          "indexed": false,
          "internalType": "string",
          "name": "name",
          "type": "string"
        },
        {
          "indexed": false,
          "internalType": "uint256",
          "name": "price",
          "type": "uint256"
        },
        {
          "indexed": false,
          "internalType": "uint256",
          "name": "priceInTokens",
          "type": "uint256"
        }
      ],
      "name": "ProductAdded",
      "type": "event"
    },
    {
      "anonymous": false,
      "inputs": [
        {
          "indexed": true,
          "internalType": "uint256",
          "name": "id",
          "type": "uint256"
        },
        {
          "indexed": false,
          "internalType": "address",
          "name": "buyer",
          "type": "address"
        },
        {
          "indexed": false,
          "internalType": "uint256",
          "name": "amount",
          "type": "uint256"
        },
        {
          "indexed": false,
          "internalType": "bool",
          "name": "isTokenPayment",
          "type": "bool"
        }
      ],
      "name": "ProductPurchased",
      "type": "event"
    },
    {
      "anonymous": false,
      "inputs": [
        {
          "indexed": true,
          "internalType": "uint256",
          "name": "id",
          "type": "uint256"
        },
        {
          "indexed": false,
          "internalType": "string",
          "name": "name",
          "type": "string"
        },
        {
          "indexed": false,
          "internalType": "uint256",
          "name": "price",
          "type": "uint256"
        },
        {
          "indexed": false,
          "internalType": "uint256",
          "name": "priceInTokens",
          "type": "uint256"
        }
      ],
      "name": "ProductUpdated",
      "type": "event"
    },
    {
      "inputs": [
        {
          "internalType": "string",
          "name": "name",
          "type": "string"
        },
        {
          "internalType": "string",
          "name": "description",
          "type": "string"
        },
        {
          "internalType": "uint256",
          "name": "price",
          "type": "uint256"
        },
        {
          "internalType": "uint256",
          "name": "priceInTokens",
          "type": "uint256"
        },
        {
          "internalType": "uint256",
          "name": "stock",
          "type": "uint256"
        }
      ],
      "name": "addProduct",
      "outputs": [],
      "stateMutability": "nonpayable",
      "type": "function"
    },
    {
      "inputs": [
        {
          "internalType": "uint256",
          "name": "id",
          "type": "uint256"
        }
      ],
      "name": "getProduct",
      "outputs": [
        {
          "internalType": "string",
          "name": "name",
          "type": "string"
        },
        {
          "internalType": "string",
          "name": "description",
          "type": "string"
        },
        {
          "internalType": "uint256",
          "name": "price",
          "type": "uint256"
        },
        {
          "internalType": "uint256",
          "name": "priceInTokens",
          "type": "uint256"
        },
        {
          "internalType": "uint256",
          "name": "stock",
          "type": "uint256"
        },
        {
          "internalType": "bool",
          "name": "isActive",
          "type": "bool"
        }
      ],
      "stateMutability": "view",
      "type": "function"
    },
    {
      "inputs": [
        {
          "internalType": "uint256",
          "name": "page",
          "type": "uint256"
        },
        {
          "internalType": "uint256",
          "name": "pageSize",
          "type": "uint256"
        }
      ],
      "name": "getProducts",
      "outputs": [
        {
          "components": [
            {
              "components": [
                {
                  "internalType": "uint256",
                  "name": "id",
                  "type": "uint256"
                },
                {
                  "internalType": "string",
                  "name": "name",
                  "type": "string"
                },
                {
                  "internalType": "string",
                  "name": "description",
                  "type": "string"
                },
                {
                  "internalType": "uint256",
                  "name": "price",
                  "type": "uint256"
                },
                {
                  "internalType": "uint256",
                  "name": "priceInTokens",
                  "type": "uint256"
                },
                {
                  "internalType": "uint256",
                  "name": "stock",
                  "type": "uint256"
                },
                {
                  "internalType": "bool",
                  "name": "isActive",
                  "type": "bool"
                }
              ],
              "internalType": "struct eStore.Product[]",
              "name": "products",
              "type": "tuple[]"
            },
            {
              "internalType": "uint256",
              "name": "totalProducts",
              "type": "uint256"
            },
            {
              "internalType": "uint256",
              "name": "currentPage",
              "type": "uint256"
            },
            {
              "internalType": "uint256",
              "name": "totalPages",
              "type": "uint256"
            },
            {
              "internalType": "uint256",
              "name": "pageSize",
              "type": "uint256"
            }
          ],
          "internalType": "struct eStore.ProductPage",
          "name": "",
          "type": "tuple"
        }
      ],
      "stateMutability": "view",
      "type": "function"
    },
    {
      "inputs": [],
      "name": "paymentToken",
      "outputs": [
        {
          "internalType": "contract IERC20",
          "name": "",
          "type": "address"
        }
      ],
      "stateMutability": "view",
      "type": "function"
    },
    {
      "inputs": [],
      "name": "productCount",
      "outputs": [
        {
          "internalType": "uint256",
          "name": "",
          "type": "uint256"
        }
      ],
      "stateMutability": "view",
      "type": "function"
    },
    {
      "inputs": [
        {
          "internalType": "uint256",
          "name": "id",
          "type": "uint256"
        }
      ],
      "name": "purchaseWithNative",
      "outputs": [],
      "stateMutability": "payable",
      "type": "function"
    },
    {
      "inputs": [
        {
          "internalType": "uint256",
          "name": "id",
          "type": "uint256"
        }
      ],
      "name": "purchaseWithTokens",
      "outputs": [],
      "stateMutability": "nonpayable",
      "type": "function"
    },
    {
      "inputs": [
        {
          "internalType": "uint256",
          "name": "id",
          "type": "uint256"
        }
      ],
      "name": "toggleProductStatus",
      "outputs": [],
      "stateMutability": "nonpayable",
      "type": "function"
    },
    {
      "inputs": [],
      "name": "totalNativeSales",
      "outputs": [
        {
          "internalType": "uint256",
          "name": "",
          "type": "uint256"
        }
      ],
      "stateMutability": "view",
      "type": "function"
    },
    {
      "inputs": [],
      "name": "totalTokenSales",
      "outputs": [
        {
          "internalType": "uint256",
          "name": "",
          "type": "uint256"
        }
      ],
      "stateMutability": "view",
      "type": "function"
    },
    {
      "inputs": [
        {
          "internalType": "uint256",
          "name": "id",
          "type": "uint256"
        },
        {
          "internalType": "string",
          "name": "name",
          "type": "string"
        },
        {
          "internalType": "string",
          "name": "description",
          "type": "string"
        },
        {
          "internalType": "uint256",
          "name": "price",
          "type": "uint256"
        },
        {
          "internalType": "uint256",
          "name": "priceInTokens",
          "type": "uint256"
        },
        {
          "internalType": "uint256",
          "name": "stock",
          "type": "uint256"
        }
      ],
      "name": "updateProduct",
      "outputs": [],
      "stateMutability": "nonpayable",
      "type": "function"
    },
    {
      "inputs": [],
      "name": "withdrawNative",
      "outputs": [],
      "stateMutability": "nonpayable",
      "type": "function"
    },
    {
      "inputs": [],
      "name": "withdrawTokens",
      "outputs": [],
      "stateMutability": "nonpayable",
      "type": "function"
    }
  ],
  "bytecode": "0x60806040523480156200001157600080fd5b5060405162002b8438038062002b848339818101604052810190620000379190620000f1565b600160008190555080600160006101000a81548173ffffffffffffffffffffffffffffffffffffffff021916908373ffffffffffffffffffffffffffffffffffffffff1602179055505062000123565b600080fd5b600073ffffffffffffffffffffffffffffffffffffffff82169050919050565b6000620000b9826200008c565b9050919050565b620000cb81620000ac565b8114620000d757600080fd5b50565b600081519050620000eb81620000c0565b92915050565b6000602082840312156200010a576200010962000087565b5b60006200011a84828501620000da565b91505092915050565b612a5180620001336000396000f3fe6080604052600436106100c25760003560e01c8063c36ae7661161007f578063dc60d3d211610059578063dc60d3d214610238578063e0f6ef8714610261578063e82c6e7b1461028c578063ea7284de146102b7576100c2565b8063c36ae766146101ca578063c3c12e69146101f3578063d587c0c31461020f576100c2565b80633013ce29146100c757806350431ce4146100f25780637633f80f146101095780638c401448146101345780638d8f2adb14610171578063b9db15b414610188575b600080fd5b3480156100d357600080fd5b506100dc6102e0565b6040516100e9919061158e565b60405180910390f35b3480156100fe57600080fd5b50610107610306565b005b34801561011557600080fd5b5061011e610398565b60405161012b91906115c2565b60405180910390f35b34801561014057600080fd5b5061015b6004803603810190610156919061161d565b61039e565b60405161016891906118f2565b60405180910390f35b34801561017d57600080fd5b506101866107a7565b005b34801561019457600080fd5b506101af60048036038101906101aa9190611914565b61096c565b6040516101c19695949392919061199a565b60405180910390f35b3480156101d657600080fd5b506101f160048036038101906101ec9190611914565b610b34565b005b61020d60048036038101906102089190611914565b610bda565b005b34801561021b57600080fd5b5061023660048036038101906102319190611914565b610e10565b005b34801561024457600080fd5b5061025f600480360381019061025a9190611b3e565b6110c8565b005b34801561026d57600080fd5b506102766112be565b60405161028391906115c2565b60405180910390f35b34801561029857600080fd5b506102a16112c4565b6040516102ae91906115c2565b60405180910390f35b3480156102c357600080fd5b506102de60048036038101906102d99190611bf1565b6112ca565b005b600160009054906101000a900473ffffffffffffffffffffffffffffffffffffffff1681565b60004790506000811161034e576040517f08c379a000000000000000000000000000000000000000000000000000000000815260040161034590611d02565b60405180910390fd5b3373ffffffffffffffffffffffffffffffffffffffff166108fc829081150290604051600060405180830381858888f19350505050158015610394573d6000803e3d6000fd5b5050565b60045481565b6103a66114a1565b600083116103e9576040517f08c379a00000000000000000000000000000000000000000000000000000000081526004016103e090611d94565b60405180910390fd5b6000821161042c576040517f08c379a000000000000000000000000000000000000000000000000000000000815260040161042390611e00565b60405180910390fd5b6064821115610470576040517f08c379a000000000000000000000000000000000000000000000000000000000815260040161046790611e6c565b60405180910390fd5b6000826001846003546104839190611ebb565b61048d9190611eef565b6104979190611f52565b9050808411156104dc576040517f08c379a00000000000000000000000000000000000000000000000000000000081526004016104d390611fcf565b60405180910390fd5b60006001846001876104ee9190611eef565b6104f89190611fef565b6105029190611ebb565b90506000600185836105149190611ebb565b61051e9190611eef565b90506003548111156105305760035490505b6000600183836105409190611eef565b61054a9190611ebb565b905060008167ffffffffffffffff81111561056857610567611a13565b5b6040519080825280602002602001820160405280156105a157816020015b61058e6114d0565b8152602001906001900390816105865790505b50905060005b82811015610770576002600082876105bf9190611ebb565b81526020019081526020016000206040518060e0016040529081600082015481526020016001820180546105f290612060565b80601f016020809104026020016040519081016040528092919081815260200182805461061e90612060565b801561066b5780601f106106405761010080835404028352916020019161066b565b820191906000526020600020905b81548152906001019060200180831161064e57829003601f168201915b5050505050815260200160028201805461068490612060565b80601f01602080910402602001604051908101604052809291908181526020018280546106b090612060565b80156106fd5780601f106106d2576101008083540402835291602001916106fd565b820191906000526020600020905b8154815290600101906020018083116106e057829003601f168201915b505050505081526020016003820154815260200160048201548152602001600582015481526020016006820160009054906101000a900460ff16151515158152505082828151811061075257610751612091565b5b60200260200101819052508080610768906120c0565b9150506105a7565b506040518060a001604052808281526020016003548152602001898152602001868152602001888152509550505050505092915050565b6000600160009054906101000a900473ffffffffffffffffffffffffffffffffffffffff1673ffffffffffffffffffffffffffffffffffffffff166370a08231306040518263ffffffff1660e01b81526004016108049190612129565b602060405180830381865afa158015610821573d6000803e3d6000fd5b505050506040513d601f19601f820116820180604052508101906108459190612159565b90506000811161088a576040517f08c379a0000000000000000000000000000000000000000000000000000000008152600401610881906121d2565b60405180910390fd5b600160009054906101000a900473ffffffffffffffffffffffffffffffffffffffff1673ffffffffffffffffffffffffffffffffffffffff1663a9059cbb33836040518363ffffffff1660e01b81526004016108e79291906121f2565b6020604051808303816000875af1158015610906573d6000803e3d6000fd5b505050506040513d601f19601f8201168201806040525081019061092a9190612247565b610969576040517f08c379a0000000000000000000000000000000000000000000000000000000008152600401610960906122c0565b60405180910390fd5b50565b60608060008060008060008711801561098757506003548711155b6109c6576040517f08c379a00000000000000000000000000000000000000000000000000000000081526004016109bd9061232c565b60405180910390fd5b600060026000898152602001908152602001600020905080600101816002018260030154836004015484600501548560060160009054906101000a900460ff16858054610a1290612060565b80601f0160208091040260200160405190810160405280929190818152602001828054610a3e90612060565b8015610a8b5780601f10610a6057610100808354040283529160200191610a8b565b820191906000526020600020905b815481529060010190602001808311610a6e57829003601f168201915b50505050509550848054610a9e90612060565b80601f0160208091040260200160405190810160405280929190818152602001828054610aca90612060565b8015610b175780601f10610aec57610100808354040283529160200191610b17565b820191906000526020600020905b815481529060010190602001808311610afa57829003601f168201915b505050505094509650965096509650965096505091939550919395565b600081118015610b4657506003548111155b610b85576040517f08c379a0000000000000000000000000000000000000000000000000000000008152600401610b7c9061232c565b60405180910390fd5b6002600082815260200190815260200160002060060160009054906101000a900460ff16156002600083815260200190815260200160002060060160006101000a81548160ff02191690831515021790555050565b610be2611448565b600081118015610bf457506003548111155b610c33576040517f08c379a0000000000000000000000000000000000000000000000000000000008152600401610c2a9061232c565b60405180910390fd5b60006002600083815260200190815260200160002090508060060160009054906101000a900460ff16610c9b576040517f08c379a0000000000000000000000000000000000000000000000000000000008152600401610c9290612398565b60405180910390fd5b6000816005015411610ce2576040517f08c379a0000000000000000000000000000000000000000000000000000000008152600401610cd990612404565b60405180910390fd5b8060030154341015610d29576040517f08c379a0000000000000000000000000000000000000000000000000000000008152600401610d2090612470565b60405180910390fd5b806005016000815480929190610d3e90612490565b9190505550806003015460046000828254610d599190611ebb565b925050819055508060030154341115610dc3573373ffffffffffffffffffffffffffffffffffffffff166108fc826003015434610d969190611eef565b9081150290604051600060405180830381858888f19350505050158015610dc1573d6000803e3d6000fd5b505b817f040eeb515e93a6cf1099c80ef3b467976053c2abb316c643ece5037f63ad234f3383600301546000604051610dfc939291906124b9565b60405180910390a250610e0d611497565b50565b610e18611448565b600081118015610e2a57506003548111155b610e69576040517f08c379a0000000000000000000000000000000000000000000000000000000008152600401610e609061232c565b60405180910390fd5b60006002600083815260200190815260200160002090508060060160009054906101000a900460ff16610ed1576040517f08c379a0000000000000000000000000000000000000000000000000000000008152600401610ec890612398565b60405180910390fd5b6000816005015411610f18576040517f08c379a0000000000000000000000000000000000000000000000000000000008152600401610f0f90612404565b60405180910390fd5b6000816004015411610f5f576040517f08c379a0000000000000000000000000000000000000000000000000000000008152600401610f5690612562565b60405180910390fd5b600160009054906101000a900473ffffffffffffffffffffffffffffffffffffffff1673ffffffffffffffffffffffffffffffffffffffff166323b872dd333084600401546040518463ffffffff1660e01b8152600401610fc293929190612582565b6020604051808303816000875af1158015610fe1573d6000803e3d6000fd5b505050506040513d601f19601f820116820180604052508101906110059190612247565b611044576040517f08c379a000000000000000000000000000000000000000000000000000000000815260040161103b906122c0565b60405180910390fd5b80600501600081548092919061105990612490565b91905055508060040154600560008282546110749190611ebb565b92505081905550817f040eeb515e93a6cf1099c80ef3b467976053c2abb316c643ece5037f63ad234f33836004015460016040516110b4939291906124b9565b60405180910390a2506110c5611497565b50565b600085511161110c576040517f08c379a000000000000000000000000000000000000000000000000000000000815260040161110390612605565b60405180910390fd5b600083118061111b5750600082115b61115a576040517f08c379a000000000000000000000000000000000000000000000000000000000815260040161115190612671565b60405180910390fd5b6000811161119d576040517f08c379a0000000000000000000000000000000000000000000000000000000008152600401611194906126dd565b60405180910390fd5b600360008154809291906111b0906120c0565b91905055506040518060e00160405280600354815260200186815260200185815260200184815260200183815260200182815260200160011515815250600260006003548152602001908152602001600020600082015181600001556020820151816001019081611221919061289f565b506040820151816002019081611237919061289f565b50606082015181600301556080820151816004015560a0820151816005015560c08201518160060160006101000a81548160ff0219169083151502179055509050506003547f0107e99fb43ba873db8a5ce7c34a12cd44cd3041167cff32040ddb6aca455ae68685856040516112af93929190612971565b60405180910390a25050505050565b60035481565b60055481565b6000861180156112dc57506003548611155b61131b576040517f08c379a00000000000000000000000000000000000000000000000000000000081526004016113129061232c565b60405180910390fd5b600085511161135f576040517f08c379a000000000000000000000000000000000000000000000000000000000815260040161135690612605565b60405180910390fd5b600083118061136e5750600082115b6113ad576040517f08c379a00000000000000000000000000000000000000000000000000000000081526004016113a490612671565b60405180910390fd5b6000600260008881526020019081526020016000209050858160010190816113d5919061289f565b50848160020190816113e7919061289f565b50838160030181905550828160040181905550818160050181905550867ff2f6cb462e8728158dbba5fcbe8181d88ca70bd5a0a5ad7f718c99ad80ba00a587868660405161143793929190612971565b60405180910390a250505050505050565b60026000540361148d576040517f08c379a0000000000000000000000000000000000000000000000000000000008152600401611484906129fb565b60405180910390fd5b6002600081905550565b6001600081905550565b6040518060a0016040528060608152602001600081526020016000815260200160008152602001600081525090565b6040518060e001604052806000815260200160608152602001606081526020016000815260200160008152602001600081526020016000151581525090565b600073ffffffffffffffffffffffffffffffffffffffff82169050919050565b6000819050919050565b600061155461154f61154a8461150f565b61152f565b61150f565b9050919050565b600061156682611539565b9050919050565b60006115788261155b565b9050919050565b6115888161156d565b82525050565b60006020820190506115a3600083018461157f565b92915050565b6000819050919050565b6115bc816115a9565b82525050565b60006020820190506115d760008301846115b3565b92915050565b6000604051905090565b600080fd5b600080fd5b6115fa816115a9565b811461160557600080fd5b50565b600081359050611617816115f1565b92915050565b60008060408385031215611634576116336115e7565b5b600061164285828601611608565b925050602061165385828601611608565b9150509250929050565b600081519050919050565b600082825260208201905092915050565b6000819050602082019050919050565b611692816115a9565b82525050565b600081519050919050565b600082825260208201905092915050565b60005b838110156116d25780820151818401526020810190506116b7565b60008484015250505050565b6000601f19601f8301169050919050565b60006116fa82611698565b61170481856116a3565b93506117148185602086016116b4565b61171d816116de565b840191505092915050565b60008115159050919050565b61173d81611728565b82525050565b600060e08301600083015161175b6000860182611689565b506020830151848203602086015261177382826116ef565b9150506040830151848203604086015261178d82826116ef565b91505060608301516117a26060860182611689565b5060808301516117b56080860182611689565b5060a08301516117c860a0860182611689565b5060c08301516117db60c0860182611734565b508091505092915050565b60006117f28383611743565b905092915050565b6000602082019050919050565b60006118128261165d565b61181c8185611668565b93508360208202850161182e85611679565b8060005b8581101561186a578484038952815161184b85826117e6565b9450611856836117fa565b925060208a01995050600181019050611832565b50829750879550505050505092915050565b600060a08301600083015184820360008601526118998282611807565b91505060208301516118ae6020860182611689565b5060408301516118c16040860182611689565b5060608301516118d46060860182611689565b5060808301516118e76080860182611689565b508091505092915050565b6000602082019050818103600083015261190c818461187c565b905092915050565b60006020828403121561192a576119296115e7565b5b600061193884828501611608565b91505092915050565b600082825260208201905092915050565b600061195d82611698565b6119678185611941565b93506119778185602086016116b4565b611980816116de565b840191505092915050565b61199481611728565b82525050565b600060c08201905081810360008301526119b48189611952565b905081810360208301526119c88188611952565b90506119d760408301876115b3565b6119e460608301866115b3565b6119f160808301856115b3565b6119fe60a083018461198b565b979650505050505050565b600080fd5b600080fd5b7f4e487b7100000000000000000000000000000000000000000000000000000000600052604160045260246000fd5b611a4b826116de565b810181811067ffffffffffffffff82111715611a6a57611a69611a13565b5b80604052505050565b6000611a7d6115dd565b9050611a898282611a42565b919050565b600067ffffffffffffffff821115611aa957611aa8611a13565b5b611ab2826116de565b9050602081019050919050565b82818337600083830152505050565b6000611ae1611adc84611a8e565b611a73565b905082815260208101848484011115611afd57611afc611a0e565b5b611b08848285611abf565b509392505050565b600082601f830112611b2557611b24611a09565b5b8135611b35848260208601611ace565b91505092915050565b600080600080600060a08688031215611b5a57611b596115e7565b5b600086013567ffffffffffffffff811115611b7857611b776115ec565b5b611b8488828901611b10565b955050602086013567ffffffffffffffff811115611ba557611ba46115ec565b5b611bb188828901611b10565b9450506040611bc288828901611608565b9350506060611bd388828901611608565b9250506080611be488828901611608565b9150509295509295909350565b60008060008060008060c08789031215611c0e57611c0d6115e7565b5b6000611c1c89828a01611608565b965050602087013567ffffffffffffffff811115611c3d57611c3c6115ec565b5b611c4989828a01611b10565b955050604087013567ffffffffffffffff811115611c6a57611c696115ec565b5b611c7689828a01611b10565b9450506060611c8789828a01611608565b9350506080611c9889828a01611608565b92505060a0611ca989828a01611608565b9150509295509295509295565b7f4e6f2062616c616e636520746f20776974686472617700000000000000000000600082015250565b6000611cec601683611941565b9150611cf782611cb6565b602082019050919050565b60006020820190508181036000830152611d1b81611cdf565b9050919050565b7f50616765206e756d626572206d7573742062652067726561746572207468616e60008201527f2030000000000000000000000000000000000000000000000000000000000000602082015250565b6000611d7e602283611941565b9150611d8982611d22565b604082019050919050565b60006020820190508181036000830152611dad81611d71565b9050919050565b7f506167652073697a65206d7573742062652067726561746572207468616e2030600082015250565b6000611dea602083611941565b9150611df582611db4565b602082019050919050565b60006020820190508181036000830152611e1981611ddd565b9050919050565b7f506167652073697a652063616e6e6f7420657863656564203130300000000000600082015250565b6000611e56601b83611941565b9150611e6182611e20565b602082019050919050565b60006020820190508181036000830152611e8581611e49565b9050919050565b7f4e487b7100000000000000000000000000000000000000000000000000000000600052601160045260246000fd5b6000611ec6826115a9565b9150611ed1836115a9565b9250828201905080821115611ee957611ee8611e8c565b5b92915050565b6000611efa826115a9565b9150611f05836115a9565b9250828203905081811115611f1d57611f1c611e8c565b5b92915050565b7f4e487b7100000000000000000000000000000000000000000000000000000000600052601260045260246000fd5b6000611f5d826115a9565b9150611f68836115a9565b925082611f7857611f77611f23565b5b828204905092915050565b7f50616765206e756d626572206578636565647320746f74616c20706167657300600082015250565b6000611fb9601f83611941565b9150611fc482611f83565b602082019050919050565b60006020820190508181036000830152611fe881611fac565b9050919050565b6000611ffa826115a9565b9150612005836115a9565b9250828202612013816115a9565b9150828204841483151761202a57612029611e8c565b5b5092915050565b7f4e487b7100000000000000000000000000000000000000000000000000000000600052602260045260246000fd5b6000600282049050600182168061207857607f821691505b60208210810361208b5761208a612031565b5b50919050565b7f4e487b7100000000000000000000000000000000000000000000000000000000600052603260045260246000fd5b60006120cb826115a9565b91507fffffffffffffffffffffffffffffffffffffffffffffffffffffffffffffffff82036120fd576120fc611e8c565b5b600182019050919050565b60006121138261150f565b9050919050565b61212381612108565b82525050565b600060208201905061213e600083018461211a565b92915050565b600081519050612153816115f1565b92915050565b60006020828403121561216f5761216e6115e7565b5b600061217d84828501612144565b91505092915050565b7f4e6f20746f6b656e7320746f2077697468647261770000000000000000000000600082015250565b60006121bc601583611941565b91506121c782612186565b602082019050919050565b600060208201905081810360008301526121eb816121af565b9050919050565b6000604082019050612207600083018561211a565b61221460208301846115b3565b9392505050565b61222481611728565b811461222f57600080fd5b50565b6000815190506122418161221b565b92915050565b60006020828403121561225d5761225c6115e7565b5b600061226b84828501612232565b91505092915050565b7f546f6b656e207472616e73666572206661696c65640000000000000000000000600082015250565b60006122aa601583611941565b91506122b582612274565b602082019050919050565b600060208201905081810360008301526122d98161229d565b9050919050565b7f496e76616c69642070726f647563742049440000000000000000000000000000600082015250565b6000612316601283611941565b9150612321826122e0565b602082019050919050565b6000602082019050818103600083015261234581612309565b9050919050565b7f50726f64756374206973206e6f74206163746976650000000000000000000000600082015250565b6000612382601583611941565b915061238d8261234c565b602082019050919050565b600060208201905081810360008301526123b181612375565b9050919050565b7f50726f64756374206f7574206f662073746f636b000000000000000000000000600082015250565b60006123ee601483611941565b91506123f9826123b8565b602082019050919050565b6000602082019050818103600083015261241d816123e1565b9050919050565b7f496e73756666696369656e74207061796d656e74000000000000000000000000600082015250565b600061245a601483611941565b915061246582612424565b602082019050919050565b600060208201905081810360008301526124898161244d565b9050919050565b600061249b826115a9565b9150600082036124ae576124ad611e8c565b5b600182039050919050565b60006060820190506124ce600083018661211a565b6124db60208301856115b3565b6124e8604083018461198b565b949350505050565b7f546f6b656e207061796d656e74206e6f7420737570706f7274656420666f722060008201527f746869732070726f647563740000000000000000000000000000000000000000602082015250565b600061254c602c83611941565b9150612557826124f0565b604082019050919050565b6000602082019050818103600083015261257b8161253f565b9050919050565b6000606082019050612597600083018661211a565b6125a4602083018561211a565b6125b160408301846115b3565b949350505050565b7f4e616d652063616e6e6f7420626520656d707479000000000000000000000000600082015250565b60006125ef601483611941565b91506125fa826125b9565b602082019050919050565b6000602082019050818103600083015261261e816125e2565b9050919050565b7f5072696365206d7573742062652067726561746572207468616e203000000000600082015250565b600061265b601c83611941565b915061266682612625565b602082019050919050565b6000602082019050818103600083015261268a8161264e565b9050919050565b7f53746f636b206d7573742062652067726561746572207468616e203000000000600082015250565b60006126c7601c83611941565b91506126d282612691565b602082019050919050565b600060208201905081810360008301526126f6816126ba565b9050919050565b60008190508160005260206000209050919050565b60006020601f8301049050919050565b600082821b905092915050565b60006008830261275f7fffffffffffffffffffffffffffffffffffffffffffffffffffffffffffffffff82612722565b6127698683612722565b95508019841693508086168417925050509392505050565b600061279c612797612792846115a9565b61152f565b6115a9565b9050919050565b6000819050919050565b6127b683612781565b6127ca6127c2826127a3565b84845461272f565b825550505050565b600090565b6127df6127d2565b6127ea8184846127ad565b505050565b5b8181101561280e576128036000826127d7565b6001810190506127f0565b5050565b601f82111561285357612824816126fd565b61282d84612712565b8101602085101561283c578190505b61285061284885612712565b8301826127ef565b50505b505050565b600082821c905092915050565b600061287660001984600802612858565b1980831691505092915050565b600061288f8383612865565b9150826002028217905092915050565b6128a882611698565b67ffffffffffffffff8111156128c1576128c0611a13565b5b6128cb8254612060565b6128d6828285612812565b600060209050601f83116001811461290957600084156128f7578287015190505b6129018582612883565b865550612969565b601f198416612917866126fd565b60005b8281101561293f5784890151825560018201915060208501945060208101905061291a565b8683101561295c5784890151612958601f891682612865565b8355505b6001600288020188555050505b505050505050565b6000606082019050818103600083015261298b8186611952565b905061299a60208301856115b3565b6129a760408301846115b3565b949350505050565b7f5265656e7472616e637947756172643a207265656e7472616e742063616c6c00600082015250565b60006129e5601f83611941565b91506129f0826129af565b602082019050919050565b60006020820190508181036000830152612a14816129d8565b905091905056fea2646970667358221220b396a6543beda965efa97d86929b4edf0ddc993aa7c7116ae9f160e654bb978c64736f6c63430008120033",
  "linkReferences": {},
  "deployedLinkReferences": {}
}