{
  "_format": "hh-sol-artifact-1",
  "contractName": "AddressBook",
  "sourceName": "contracts/AddressBook.sol",
  "abi": [
    {
      "anonymous": false,
      "inputs": [
        {
          "indexed": true,
          "internalType": "address",
          "name": "contactAddress",
          "type": "address"
        },
        {
          "indexed": false,
          "internalType": "string",
          "name": "aliasName",
          "type": "string"
        }
      ],
      "name": "ContactAdded",
      "type": "event"
    },
    {
      "anonymous": false,
      "inputs": [
        {
          "indexed": true,
          "internalType": "address",
          "name": "contactAddress",
          "type": "address"
        },
        {
          "indexed": false,
          "internalType": "string",
          "name": "aliasName",
          "type": "string"
        }
      ],
      "name": "ContactRemoved",
      "type": "event"
    },
    {
      "inputs": [
        {
          "internalType": "address",
          "name": "contactAddress",
          "type": "address"
        },
        {
          "internalType": "string",
          "name": "aliasName",
          "type": "string"
        }
      ],
      "name": "addContact",
      "outputs": [],
      "stateMutability": "nonpayable",
      "type": "function"
    },
    {
      "inputs": [
        {
          "internalType": "address",
          "name": "contactAddress",
          "type": "address"
        }
      ],
      "name": "getAlias",
      "outputs": [
        {
          "internalType": "string",
          "name": "",
          "type": "string"
        }
      ],
      "stateMutability": "view",
      "type": "function"
    },
    {
      "inputs": [],
      "name": "getAllContacts",
      "outputs": [
        {
          "components": [
            {
              "internalType": "address",
              "name": "contactAddress",
              "type": "address"
            },
            {
              "internalType": "string",
              "name": "name",
              "type": "string"
            }
          ],
          "internalType": "struct AddressBook.Contact[]",
          "name": "",
          "type": "tuple[]"
        }
      ],
      "stateMutability": "view",
      "type": "function"
    },
    {
      "inputs": [],
      "name": "getContacts",
      "outputs": [
        {
          "internalType": "address[]",
          "name": "",
          "type": "address[]"
        }
      ],
      "stateMutability": "view",
      "type": "function"
    },
    {
      "inputs": [],
      "name": "removeAllContacts",
      "outputs": [],
      "stateMutability": "nonpayable",
      "type": "function"
    },
    {
      "inputs": [
        {
          "internalType": "address",
          "name": "contactAddress",
          "type": "address"
        }
      ],
      "name": "removeContact",
      "outputs": [],
      "stateMutability": "nonpayable",
      "type": "function"
    }
  ],
  "bytecode": "0x608060405234801561001057600080fd5b5061152f806100206000396000f3fe608060405234801561001057600080fd5b50600436106100625760003560e01c8063416c4da21461006757806399900d1114610071578063a6a66072146100a1578063c4448164146100bd578063db920b77146100d9578063ef1d6ddd146100f7575b600080fd5b61006f610115565b005b61008b60048036038101906100869190610c4d565b6102f6565b6040516100989190610d0a565b60405180910390f35b6100bb60048036038101906100b69190610c4d565b6103c7565b005b6100d760048036038101906100d29190610e61565b6106e3565b005b6100e161088b565b6040516100ee9190610f7b565b60405180910390f35b6100ff610919565b60405161010c91906110e6565b60405180910390f35b60008080549050905060005b818110156102e557600080828154811061013e5761013d611108565b5b9060005260206000200160009054906101000a900473ffffffffffffffffffffffffffffffffffffffff1690506000600160008373ffffffffffffffffffffffffffffffffffffffff1673ffffffffffffffffffffffffffffffffffffffff16815260200190815260200160002080546101b790611166565b80601f01602080910402602001604051908101604052809291908181526020018280546101e390611166565b80156102305780601f1061020557610100808354040283529160200191610230565b820191906000526020600020905b81548152906001019060200180831161021357829003601f168201915b50505050509050600160008373ffffffffffffffffffffffffffffffffffffffff1673ffffffffffffffffffffffffffffffffffffffff16815260200190815260200160002060006102829190610b2d565b8173ffffffffffffffffffffffffffffffffffffffff167ff7318b9baff531ccb2db40128064f019ac27200ead589e6a024858ca576347ef826040516102c89190610d0a565b60405180910390a2505080806102dd906111d0565b915050610121565b506000806102f39190610b6d565b50565b6060600160008373ffffffffffffffffffffffffffffffffffffffff1673ffffffffffffffffffffffffffffffffffffffff168152602001908152602001600020805461034290611166565b80601f016020809104026020016040519081016040528092919081815260200182805461036e90611166565b80156103bb5780601f10610390576101008083540402835291602001916103bb565b820191906000526020600020905b81548152906001019060200180831161039e57829003601f168201915b50505050509050919050565b60008080549050905060005b818110156106de57600081815481106103ef576103ee611108565b5b9060005260206000200160009054906101000a900473ffffffffffffffffffffffffffffffffffffffff1673ffffffffffffffffffffffffffffffffffffffff168373ffffffffffffffffffffffffffffffffffffffff16036106cb576000600160008573ffffffffffffffffffffffffffffffffffffffff1673ffffffffffffffffffffffffffffffffffffffff168152602001908152602001600020805461049890611166565b80601f01602080910402602001604051908101604052809291908181526020018280546104c490611166565b80156105115780601f106104e657610100808354040283529160200191610511565b820191906000526020600020905b8154815290600101906020018083116104f457829003601f168201915b50505050509050600160008054905011801561053857506001836105359190611218565b82105b156105e557600060018461054c9190611218565b8154811061055d5761055c611108565b5b9060005260206000200160009054906101000a900473ffffffffffffffffffffffffffffffffffffffff166000838154811061059c5761059b611108565b5b9060005260206000200160006101000a81548173ffffffffffffffffffffffffffffffffffffffff021916908373ffffffffffffffffffffffffffffffffffffffff1602179055505b60008054806105f7576105f661124c565b5b6001900381819060005260206000200160006101000a81549073ffffffffffffffffffffffffffffffffffffffff02191690559055600160008573ffffffffffffffffffffffffffffffffffffffff1673ffffffffffffffffffffffffffffffffffffffff16815260200190815260200160002060006106779190610b2d565b8373ffffffffffffffffffffffffffffffffffffffff167ff7318b9baff531ccb2db40128064f019ac27200ead589e6a024858ca576347ef826040516106bd9190610d0a565b60405180910390a2506106de565b80806106d6906111d0565b9150506103d3565b505050565b6000805b600080549050811015610781578373ffffffffffffffffffffffffffffffffffffffff166000828154811061071f5761071e611108565b5b9060005260206000200160009054906101000a900473ffffffffffffffffffffffffffffffffffffffff1673ffffffffffffffffffffffffffffffffffffffff160361076e5760019150610781565b8080610779906111d0565b9150506106e7565b50806107eb576000839080600181540180825580915050600190039060005260206000200160009091909190916101000a81548173ffffffffffffffffffffffffffffffffffffffff021916908373ffffffffffffffffffffffffffffffffffffffff1602179055505b81600160008573ffffffffffffffffffffffffffffffffffffffff1673ffffffffffffffffffffffffffffffffffffffff16815260200190815260200160002090816108379190611427565b508273ffffffffffffffffffffffffffffffffffffffff167f9280ab62b28f72fda96d181cdcc605f64b8c5a445445ed802535bc7001ca9d5d8360405161087e9190610d0a565b60405180910390a2505050565b6060600080548060200260200160405190810160405280929190818152602001828054801561090f57602002820191906000526020600020905b8160009054906101000a900473ffffffffffffffffffffffffffffffffffffffff1673ffffffffffffffffffffffffffffffffffffffff16815260200190600101908083116108c5575b5050505050905090565b60606000808054905067ffffffffffffffff81111561093b5761093a610d36565b5b60405190808252806020026020018201604052801561097457816020015b610961610b8e565b8152602001906001900390816109595790505b50905060005b600080549050811015610b25576040518060400160405280600083815481106109a6576109a5611108565b5b9060005260206000200160009054906101000a900473ffffffffffffffffffffffffffffffffffffffff1673ffffffffffffffffffffffffffffffffffffffff16815260200160016000808581548110610a0357610a02611108565b5b9060005260206000200160009054906101000a900473ffffffffffffffffffffffffffffffffffffffff1673ffffffffffffffffffffffffffffffffffffffff1673ffffffffffffffffffffffffffffffffffffffff1681526020019081526020016000208054610a7390611166565b80601f0160208091040260200160405190810160405280929190818152602001828054610a9f90611166565b8015610aec5780601f10610ac157610100808354040283529160200191610aec565b820191906000526020600020905b815481529060010190602001808311610acf57829003601f168201915b5050505050815250828281518110610b0757610b06611108565b5b60200260200101819052508080610b1d906111d0565b91505061097a565b508091505090565b508054610b3990611166565b6000825580601f10610b4b5750610b6a565b601f016020900490600052602060002090810190610b699190610bbe565b5b50565b5080546000825590600052602060002090810190610b8b9190610bbe565b50565b6040518060400160405280600073ffffffffffffffffffffffffffffffffffffffff168152602001606081525090565b5b80821115610bd7576000816000905550600101610bbf565b5090565b6000604051905090565b600080fd5b600080fd5b600073ffffffffffffffffffffffffffffffffffffffff82169050919050565b6000610c1a82610bef565b9050919050565b610c2a81610c0f565b8114610c3557600080fd5b50565b600081359050610c4781610c21565b92915050565b600060208284031215610c6357610c62610be5565b5b6000610c7184828501610c38565b91505092915050565b600081519050919050565b600082825260208201905092915050565b60005b83811015610cb4578082015181840152602081019050610c99565b60008484015250505050565b6000601f19601f8301169050919050565b6000610cdc82610c7a565b610ce68185610c85565b9350610cf6818560208601610c96565b610cff81610cc0565b840191505092915050565b60006020820190508181036000830152610d248184610cd1565b905092915050565b600080fd5b600080fd5b7f4e487b7100000000000000000000000000000000000000000000000000000000600052604160045260246000fd5b610d6e82610cc0565b810181811067ffffffffffffffff82111715610d8d57610d8c610d36565b5b80604052505050565b6000610da0610bdb565b9050610dac8282610d65565b919050565b600067ffffffffffffffff821115610dcc57610dcb610d36565b5b610dd582610cc0565b9050602081019050919050565b82818337600083830152505050565b6000610e04610dff84610db1565b610d96565b905082815260208101848484011115610e2057610e1f610d31565b5b610e2b848285610de2565b509392505050565b600082601f830112610e4857610e47610d2c565b5b8135610e58848260208601610df1565b91505092915050565b60008060408385031215610e7857610e77610be5565b5b6000610e8685828601610c38565b925050602083013567ffffffffffffffff811115610ea757610ea6610bea565b5b610eb385828601610e33565b9150509250929050565b600081519050919050565b600082825260208201905092915050565b6000819050602082019050919050565b610ef281610c0f565b82525050565b6000610f048383610ee9565b60208301905092915050565b6000602082019050919050565b6000610f2882610ebd565b610f328185610ec8565b9350610f3d83610ed9565b8060005b83811015610f6e578151610f558882610ef8565b9750610f6083610f10565b925050600181019050610f41565b5085935050505092915050565b60006020820190508181036000830152610f958184610f1d565b905092915050565b600081519050919050565b600082825260208201905092915050565b6000819050602082019050919050565b600082825260208201905092915050565b6000610fe582610c7a565b610fef8185610fc9565b9350610fff818560208601610c96565b61100881610cc0565b840191505092915050565b600060408301600083015161102b6000860182610ee9565b50602083015184820360208601526110438282610fda565b9150508091505092915050565b600061105c8383611013565b905092915050565b6000602082019050919050565b600061107c82610f9d565b6110868185610fa8565b93508360208202850161109885610fb9565b8060005b858110156110d457848403895281516110b58582611050565b94506110c083611064565b925060208a0199505060018101905061109c565b50829750879550505050505092915050565b600060208201905081810360008301526111008184611071565b905092915050565b7f4e487b7100000000000000000000000000000000000000000000000000000000600052603260045260246000fd5b7f4e487b7100000000000000000000000000000000000000000000000000000000600052602260045260246000fd5b6000600282049050600182168061117e57607f821691505b60208210810361119157611190611137565b5b50919050565b7f4e487b7100000000000000000000000000000000000000000000000000000000600052601160045260246000fd5b6000819050919050565b60006111db826111c6565b91507fffffffffffffffffffffffffffffffffffffffffffffffffffffffffffffffff820361120d5761120c611197565b5b600182019050919050565b6000611223826111c6565b915061122e836111c6565b925082820390508181111561124657611245611197565b5b92915050565b7f4e487b7100000000000000000000000000000000000000000000000000000000600052603160045260246000fd5b60008190508160005260206000209050919050565b60006020601f8301049050919050565b600082821b905092915050565b6000600883026112dd7fffffffffffffffffffffffffffffffffffffffffffffffffffffffffffffffff826112a0565b6112e786836112a0565b95508019841693508086168417925050509392505050565b6000819050919050565b600061132461131f61131a846111c6565b6112ff565b6111c6565b9050919050565b6000819050919050565b61133e83611309565b61135261134a8261132b565b8484546112ad565b825550505050565b600090565b61136761135a565b611372818484611335565b505050565b5b818110156113965761138b60008261135f565b600181019050611378565b5050565b601f8211156113db576113ac8161127b565b6113b584611290565b810160208510156113c4578190505b6113d86113d085611290565b830182611377565b50505b505050565b600082821c905092915050565b60006113fe600019846008026113e0565b1980831691505092915050565b600061141783836113ed565b9150826002028217905092915050565b61143082610c7a565b67ffffffffffffffff81111561144957611448610d36565b5b6114538254611166565b61145e82828561139a565b600060209050601f831160018114611491576000841561147f578287015190505b611489858261140b565b8655506114f1565b601f19841661149f8661127b565b60005b828110156114c7578489015182556001820191506020850194506020810190506114a2565b868310156114e457848901516114e0601f8916826113ed565b8355505b6001600288020188555050505b50505050505056fea26469706673582212204a6a551bd44e05276ee937bd1a404fd584a2257b8113f5e0cf38262b0c52e98264736f6c63430008120033",
  "linkReferences": {},
  "deployedLinkReferences": {}
}