{
  "_format": "hh-sol-artifact-1",
  "contractName": "TestStoreToken",
  "sourceName": "contracts/TestStoreToken.sol",
  "abi": [
    {
      "inputs": [],
      "stateMutability": "nonpayable",
      "type": "constructor"
    },
    {
      "anonymous": false,
      "inputs": [
        {
          "indexed": true,
          "internalType": "address",
          "name": "owner",
          "type": "address"
        },
        {
          "indexed": true,
          "internalType": "address",
          "name": "spender",
          "type": "address"
        },
        {
          "indexed": false,
          "internalType": "uint256",
          "name": "value",
          "type": "uint256"
        }
      ],
      "name": "Approval",
      "type": "event"
    },
    {
      "anonymous": false,
      "inputs": [
        {
          "indexed": true,
          "internalType": "address",
          "name": "from",
          "type": "address"
        },
        {
          "indexed": true,
          "internalType": "address",
          "name": "to",
          "type": "address"
        },
        {
          "indexed": false,
          "internalType": "uint256",
          "name": "value",
          "type": "uint256"
        }
      ],
      "name": "Transfer",
      "type": "event"
    },
    {
      "inputs": [],
      "name": "MINT_AMOUNT",
      "outputs": [
        {
          "internalType": "uint256",
          "name": "",
          "type": "uint256"
        }
      ],
      "stateMutability": "view",
      "type": "function"
    },
    {
      "inputs": [
        {
          "internalType": "address",
          "name": "owner",
          "type": "address"
        },
        {
          "internalType": "address",
          "name": "spender",
          "type": "address"
        }
      ],
      "name": "allowance",
      "outputs": [
        {
          "internalType": "uint256",
          "name": "",
          "type": "uint256"
        }
      ],
      "stateMutability": "view",
      "type": "function"
    },
    {
      "inputs": [
        {
          "internalType": "address",
          "name": "spender",
          "type": "address"
        },
        {
          "internalType": "uint256",
          "name": "amount",
          "type": "uint256"
        }
      ],
      "name": "approve",
      "outputs": [
        {
          "internalType": "bool",
          "name": "",
          "type": "bool"
        }
      ],
      "stateMutability": "nonpayable",
      "type": "function"
    },
    {
      "inputs": [
        {
          "internalType": "address",
          "name": "account",
          "type": "address"
        }
      ],
      "name": "balanceOf",
      "outputs": [
        {
          "internalType": "uint256",
          "name": "",
          "type": "uint256"
        }
      ],
      "stateMutability": "view",
      "type": "function"
    },
    {
      "inputs": [],
      "name": "decimals",
      "outputs": [
        {
          "internalType": "uint8",
          "name": "",
          "type": "uint8"
        }
      ],
      "stateMutability": "view",
      "type": "function"
    },
    {
      "inputs": [
        {
          "internalType": "address",
          "name": "spender",
          "type": "address"
        },
        {
          "internalType": "uint256",
          "name": "subtractedValue",
          "type": "uint256"
        }
      ],
      "name": "decreaseAllowance",
      "outputs": [
        {
          "internalType": "bool",
          "name": "",
          "type": "bool"
        }
      ],
      "stateMutability": "nonpayable",
      "type": "function"
    },
    {
      "inputs": [
        {
          "internalType": "address",
          "name": "spender",
          "type": "address"
        },
        {
          "internalType": "uint256",
          "name": "addedValue",
          "type": "uint256"
        }
      ],
      "name": "increaseAllowance",
      "outputs": [
        {
          "internalType": "bool",
          "name": "",
          "type": "bool"
        }
      ],
      "stateMutability": "nonpayable",
      "type": "function"
    },
    {
      "inputs": [],
      "name": "mint",
      "outputs": [],
      "stateMutability": "nonpayable",
      "type": "function"
    },
    {
      "inputs": [],
      "name": "name",
      "outputs": [
        {
          "internalType": "string",
          "name": "",
          "type": "string"
        }
      ],
      "stateMutability": "view",
      "type": "function"
    },
    {
      "inputs": [],
      "name": "symbol",
      "outputs": [
        {
          "internalType": "string",
          "name": "",
          "type": "string"
        }
      ],
      "stateMutability": "view",
      "type": "function"
    },
    {
      "inputs": [],
      "name": "totalSupply",
      "outputs": [
        {
          "internalType": "uint256",
          "name": "",
          "type": "uint256"
        }
      ],
      "stateMutability": "view",
      "type": "function"
    },
    {
      "inputs": [
        {
          "internalType": "address",
          "name": "to",
          "type": "address"
        },
        {
          "internalType": "uint256",
          "name": "amount",
          "type": "uint256"
        }
      ],
      "name": "transfer",
      "outputs": [
        {
          "internalType": "bool",
          "name": "",
          "type": "bool"
        }
      ],
      "stateMutability": "nonpayable",
      "type": "function"
    },
    {
      "inputs": [
        {
          "internalType": "address",
          "name": "from",
          "type": "address"
        },
        {
          "internalType": "address",
          "name": "to",
          "type": "address"
        },
        {
          "internalType": "uint256",
          "name": "amount",
          "type": "uint256"
        }
      ],
      "name": "transferFrom",
      "outputs": [
        {
          "internalType": "bool",
          "name": "",
          "type": "bool"
        }
      ],
      "stateMutability": "nonpayable",
      "type": "function"
    }
  ],
  "bytecode": "0x60806040523480156200001157600080fd5b506040518060400160405280601081526020017f546573742053746f726520546f6b656e000000000000000000000000000000008152506040518060400160405280600681526020017f5453746f7265000000000000000000000000000000000000000000000000000081525081600390816200008f919062000324565b508060049081620000a1919062000324565b5050506200040b565b600081519050919050565b7f4e487b7100000000000000000000000000000000000000000000000000000000600052604160045260246000fd5b7f4e487b7100000000000000000000000000000000000000000000000000000000600052602260045260246000fd5b600060028204905060018216806200012c57607f821691505b602082108103620001425762000141620000e4565b5b50919050565b60008190508160005260206000209050919050565b60006020601f8301049050919050565b600082821b905092915050565b600060088302620001ac7fffffffffffffffffffffffffffffffffffffffffffffffffffffffffffffffff826200016d565b620001b886836200016d565b95508019841693508086168417925050509392505050565b6000819050919050565b6000819050919050565b600062000205620001ff620001f984620001d0565b620001da565b620001d0565b9050919050565b6000819050919050565b6200022183620001e4565b6200023962000230826200020c565b8484546200017a565b825550505050565b600090565b6200025062000241565b6200025d81848462000216565b505050565b5b8181101562000285576200027960008262000246565b60018101905062000263565b5050565b601f821115620002d4576200029e8162000148565b620002a9846200015d565b81016020851015620002b9578190505b620002d1620002c8856200015d565b83018262000262565b50505b505050565b600082821c905092915050565b6000620002f960001984600802620002d9565b1980831691505092915050565b6000620003148383620002e6565b9150826002028217905092915050565b6200032f82620000aa565b67ffffffffffffffff8111156200034b576200034a620000b5565b5b62000357825462000113565b6200036482828562000289565b600060209050601f8311600181146200039c576000841562000387578287015190505b62000393858262000306565b86555062000403565b601f198416620003ac8662000148565b60005b82811015620003d657848901518255600182019150602085019450602081019050620003af565b86831015620003f65784890151620003f2601f891682620002e6565b8355505b6001600288020188555050505b505050505050565b611461806200041b6000396000f3fe608060405234801561001057600080fd5b50600436106100cf5760003560e01c8063395093511161008c57806395d89b411161006657806395d89b4114610216578063a457c2d714610234578063a9059cbb14610264578063dd62ed3e14610294576100cf565b806339509351146101985780635427789c146101c857806370a08231146101e6576100cf565b806306fdde03146100d4578063095ea7b3146100f25780631249c58b1461012257806318160ddd1461012c57806323b872dd1461014a578063313ce5671461017a575b600080fd5b6100dc6102c4565b6040516100e99190610cd2565b60405180910390f35b61010c60048036038101906101079190610d8d565b610356565b6040516101199190610de8565b60405180910390f35b61012a610379565b005b61013461038e565b6040516101419190610e12565b60405180910390f35b610164600480360381019061015f9190610e2d565b610398565b6040516101719190610de8565b60405180910390f35b6101826103c7565b60405161018f9190610e9c565b60405180910390f35b6101b260048036038101906101ad9190610d8d565b6103d0565b6040516101bf9190610de8565b60405180910390f35b6101d0610407565b6040516101dd9190610e12565b60405180910390f35b61020060048036038101906101fb9190610eb7565b610414565b60405161020d9190610e12565b60405180910390f35b61021e61045c565b60405161022b9190610cd2565b60405180910390f35b61024e60048036038101906102499190610d8d565b6104ee565b60405161025b9190610de8565b60405180910390f35b61027e60048036038101906102799190610d8d565b610565565b60405161028b9190610de8565b60405180910390f35b6102ae60048036038101906102a99190610ee4565b610588565b6040516102bb9190610e12565b60405180910390f35b6060600380546102d390610f53565b80601f01602080910402602001604051908101604052809291908181526020018280546102ff90610f53565b801561034c5780601f106103215761010080835404028352916020019161034c565b820191906000526020600020905b81548152906001019060200180831161032f57829003601f168201915b5050505050905090565b60008061036161060f565b905061036e818585610617565b600191505092915050565b61038c33683635c9adc5dea000006107e0565b565b6000600254905090565b6000806103a361060f565b90506103b0858285610936565b6103bb8585856109c2565b60019150509392505050565b60006012905090565b6000806103db61060f565b90506103fc8185856103ed8589610588565b6103f79190610fb3565b610617565b600191505092915050565b683635c9adc5dea0000081565b60008060008373ffffffffffffffffffffffffffffffffffffffff1673ffffffffffffffffffffffffffffffffffffffff168152602001908152602001600020549050919050565b60606004805461046b90610f53565b80601f016020809104026020016040519081016040528092919081815260200182805461049790610f53565b80156104e45780601f106104b9576101008083540402835291602001916104e4565b820191906000526020600020905b8154815290600101906020018083116104c757829003601f168201915b5050505050905090565b6000806104f961060f565b905060006105078286610588565b90508381101561054c576040517f08c379a000000000000000000000000000000000000000000000000000000000815260040161054390611059565b60405180910390fd5b6105598286868403610617565b60019250505092915050565b60008061057061060f565b905061057d8185856109c2565b600191505092915050565b6000600160008473ffffffffffffffffffffffffffffffffffffffff1673ffffffffffffffffffffffffffffffffffffffff16815260200190815260200160002060008373ffffffffffffffffffffffffffffffffffffffff1673ffffffffffffffffffffffffffffffffffffffff16815260200190815260200160002054905092915050565b600033905090565b600073ffffffffffffffffffffffffffffffffffffffff168373ffffffffffffffffffffffffffffffffffffffff1603610686576040517f08c379a000000000000000000000000000000000000000000000000000000000815260040161067d906110eb565b60405180910390fd5b600073ffffffffffffffffffffffffffffffffffffffff168273ffffffffffffffffffffffffffffffffffffffff16036106f5576040517f08c379a00000000000000000000000000000000000000000000000000000000081526004016106ec9061117d565b60405180910390fd5b80600160008573ffffffffffffffffffffffffffffffffffffffff1673ffffffffffffffffffffffffffffffffffffffff16815260200190815260200160002060008473ffffffffffffffffffffffffffffffffffffffff1673ffffffffffffffffffffffffffffffffffffffff168152602001908152602001600020819055508173ffffffffffffffffffffffffffffffffffffffff168373ffffffffffffffffffffffffffffffffffffffff167f8c5be1e5ebec7d5bd14f71427d1e84f3dd0314c0f7b2291e5b200ac8c7c3b925836040516107d39190610e12565b60405180910390a3505050565b600073ffffffffffffffffffffffffffffffffffffffff168273ffffffffffffffffffffffffffffffffffffffff160361084f576040517f08c379a0000000000000000000000000000000000000000000000000000000008152600401610846906111e9565b60405180910390fd5b61085b60008383610c38565b806002600082825461086d9190610fb3565b92505081905550806000808473ffffffffffffffffffffffffffffffffffffffff1673ffffffffffffffffffffffffffffffffffffffff168152602001908152602001600020600082825401925050819055508173ffffffffffffffffffffffffffffffffffffffff16600073ffffffffffffffffffffffffffffffffffffffff167fddf252ad1be2c89b69c2b068fc378daa952ba7f163c4a11628f55a4df523b3ef8360405161091e9190610e12565b60405180910390a361093260008383610c3d565b5050565b60006109428484610588565b90507fffffffffffffffffffffffffffffffffffffffffffffffffffffffffffffffff81146109bc57818110156109ae576040517f08c379a00000000000000000000000000000000000000000000000000000000081526004016109a590611255565b60405180910390fd5b6109bb8484848403610617565b5b50505050565b600073ffffffffffffffffffffffffffffffffffffffff168373ffffffffffffffffffffffffffffffffffffffff1603610a31576040517f08c379a0000000000000000000000000000000000000000000000000000000008152600401610a28906112e7565b60405180910390fd5b600073ffffffffffffffffffffffffffffffffffffffff168273ffffffffffffffffffffffffffffffffffffffff1603610aa0576040517f08c379a0000000000000000000000000000000000000000000000000000000008152600401610a9790611379565b60405180910390fd5b610aab838383610c38565b60008060008573ffffffffffffffffffffffffffffffffffffffff1673ffffffffffffffffffffffffffffffffffffffff16815260200190815260200160002054905081811015610b31576040517f08c379a0000000000000000000000000000000000000000000000000000000008152600401610b289061140b565b60405180910390fd5b8181036000808673ffffffffffffffffffffffffffffffffffffffff1673ffffffffffffffffffffffffffffffffffffffff16815260200190815260200160002081905550816000808573ffffffffffffffffffffffffffffffffffffffff1673ffffffffffffffffffffffffffffffffffffffff168152602001908152602001600020600082825401925050819055508273ffffffffffffffffffffffffffffffffffffffff168473ffffffffffffffffffffffffffffffffffffffff167fddf252ad1be2c89b69c2b068fc378daa952ba7f163c4a11628f55a4df523b3ef84604051610c1f9190610e12565b60405180910390a3610c32848484610c3d565b50505050565b505050565b505050565b600081519050919050565b600082825260208201905092915050565b60005b83811015610c7c578082015181840152602081019050610c61565b60008484015250505050565b6000601f19601f8301169050919050565b6000610ca482610c42565b610cae8185610c4d565b9350610cbe818560208601610c5e565b610cc781610c88565b840191505092915050565b60006020820190508181036000830152610cec8184610c99565b905092915050565b600080fd5b600073ffffffffffffffffffffffffffffffffffffffff82169050919050565b6000610d2482610cf9565b9050919050565b610d3481610d19565b8114610d3f57600080fd5b50565b600081359050610d5181610d2b565b92915050565b6000819050919050565b610d6a81610d57565b8114610d7557600080fd5b50565b600081359050610d8781610d61565b92915050565b60008060408385031215610da457610da3610cf4565b5b6000610db285828601610d42565b9250506020610dc385828601610d78565b9150509250929050565b60008115159050919050565b610de281610dcd565b82525050565b6000602082019050610dfd6000830184610dd9565b92915050565b610e0c81610d57565b82525050565b6000602082019050610e276000830184610e03565b92915050565b600080600060608486031215610e4657610e45610cf4565b5b6000610e5486828701610d42565b9350506020610e6586828701610d42565b9250506040610e7686828701610d78565b9150509250925092565b600060ff82169050919050565b610e9681610e80565b82525050565b6000602082019050610eb16000830184610e8d565b92915050565b600060208284031215610ecd57610ecc610cf4565b5b6000610edb84828501610d42565b91505092915050565b60008060408385031215610efb57610efa610cf4565b5b6000610f0985828601610d42565b9250506020610f1a85828601610d42565b9150509250929050565b7f4e487b7100000000000000000000000000000000000000000000000000000000600052602260045260246000fd5b60006002820490506001821680610f6b57607f821691505b602082108103610f7e57610f7d610f24565b5b50919050565b7f4e487b7100000000000000000000000000000000000000000000000000000000600052601160045260246000fd5b6000610fbe82610d57565b9150610fc983610d57565b9250828201905080821115610fe157610fe0610f84565b5b92915050565b7f45524332303a2064656372656173656420616c6c6f77616e63652062656c6f7760008201527f207a65726f000000000000000000000000000000000000000000000000000000602082015250565b6000611043602583610c4d565b915061104e82610fe7565b604082019050919050565b6000602082019050818103600083015261107281611036565b9050919050565b7f45524332303a20617070726f76652066726f6d20746865207a65726f2061646460008201527f7265737300000000000000000000000000000000000000000000000000000000602082015250565b60006110d5602483610c4d565b91506110e082611079565b604082019050919050565b60006020820190508181036000830152611104816110c8565b9050919050565b7f45524332303a20617070726f766520746f20746865207a65726f20616464726560008201527f7373000000000000000000000000000000000000000000000000000000000000602082015250565b6000611167602283610c4d565b91506111728261110b565b604082019050919050565b600060208201905081810360008301526111968161115a565b9050919050565b7f45524332303a206d696e7420746f20746865207a65726f206164647265737300600082015250565b60006111d3601f83610c4d565b91506111de8261119d565b602082019050919050565b60006020820190508181036000830152611202816111c6565b9050919050565b7f45524332303a20696e73756666696369656e7420616c6c6f77616e6365000000600082015250565b600061123f601d83610c4d565b915061124a82611209565b602082019050919050565b6000602082019050818103600083015261126e81611232565b9050919050565b7f45524332303a207472616e736665722066726f6d20746865207a65726f20616460008201527f6472657373000000000000000000000000000000000000000000000000000000602082015250565b60006112d1602583610c4d565b91506112dc82611275565b604082019050919050565b60006020820190508181036000830152611300816112c4565b9050919050565b7f45524332303a207472616e7366657220746f20746865207a65726f206164647260008201527f6573730000000000000000000000000000000000000000000000000000000000602082015250565b6000611363602383610c4d565b915061136e82611307565b604082019050919050565b6000602082019050818103600083015261139281611356565b9050919050565b7f45524332303a207472616e7366657220616d6f756e742065786365656473206260008201527f616c616e63650000000000000000000000000000000000000000000000000000602082015250565b60006113f5602683610c4d565b915061140082611399565b604082019050919050565b60006020820190508181036000830152611424816113e8565b905091905056fea26469706673582212206ddad0172bdf436cf9ab90be7a7bfd33d39605aae25ec5e55863b016a51b543564736f6c63430008120033",
  "linkReferences": {},
  "deployedLinkReferences": {}
}